:08000000803102288731FC2F3A
:100E6600F201F20A51019301911641019A011530DE
:100E760050018C004001980104307E01B800083012
:100E8600B9003D30BB000C30400192007E0190015C
:100E9600910192019401950164009330F00019309C
:100EA600890B532FF00B532F000064009330F00092
:100EB6001930890B5C2FF00B5C2F00006400FF30AB
:100EC600F10040011816181464000B307102031C5F
:100ED600D72F721D9C2F400198127E01900191011F
:100EE600950145018E132130F0007630890B792F5C
:100EF600F00B792F003246019A171A1638309900EE
:100F06003E3091009C30920045018C01A2308D004C
:100F160060308E008F0106309000460196173930FA
:100F2600950002307E019000033091000430950058
:100F3600C82F7E0190019101950145018E1346014E
:100F460092139A132130F0007630890BA82FF00BFC
:100F5600A82F003245018C01FF308D0010308E0025
:100F66008F010130900046019617721CBF2FCD30BD
:100F7600950040019812C52FF21CC52F41309500EF
:100F86004001981603307E01910045018E1703102B
:100F9600F20D05307202031CD22FF201F20A400153
:100FA6008C19D72F6400D22FF10140018C19672FBD
:100FB6000130F0007008F1070430F0003E30890B74
:100FC600E22FF00BE22F5B307102031CFA2F400177
:100FD600181098127E0190019101950145018E131A
:100FE6004001181240018C19FA2F6400F52F640095
:0A0FF600D82FF20140018731332F9C
:020000040001F9
:04000E00ED3FFC3F87
:04001400FF1FFF3F8C
:00000001FF
