:08000000803102288731FC2F3A
:100E6000F201F20A51019301911641019A011530E4
:100E700050018C004001980104307E01B800083018
:100E8000B9003D30BB000C30400192007E01900162
:100E9000910192019401950164009330F0001930A2
:100EA000890B502FF00B502F000064009330F0009E
:100EB0001930890B592FF00B592F00006400FF30B7
:100EC000F10040011816181064000B307102031C69
:100ED0006A2F6B2FD32F40011814721D702F712FA2
:100EE000982F98127E0190019101950145018E1372
:100EF00046019A171A16383099003E3091009C30FE
:100F0000920045018C01A2308D0060308E008F016F
:100F100006309000460196173930950002307E0168
:100F20009000033091000430950045018E17C22FC8
:100F30007E0190019101950145018E1346019213A6
:100F40009A1345018C01FF308D0010308E008F0107
:100F50000130900046019617721CAF2FB02FB52FAD
:100F6000FF30950040019812BD2FF21CB82FB92F09
:100F7000BD2F413095004001981603307E0191004D
:100F800045018E170310F20D02307202031CC92FA7
:100F9000CA2FCE2FF201F20ACE2F640040018C1D21
:100FA000D22FD32FCD2FF101F42F0130F000700894
:100FB000F1070430F0003E30890BDC2FF00BDC2F02
:100FC0005B307102031CE52FE62FF32F4001181050
:100FD00098127E0190019101950145018E13400107
:100FE00018126400F12F640040018C1DF82FF92FB6
:100FF000D52F642F80310228F20140018731302F34
:020000040001F9
:04000E00ED3FF83F8B
:04001400FF1FFE3F8D
:00000001FF
